{
  "contractName": "TicketSale",
  "abi": [
    {
      "inputs": [
        {
          "internalType": "uint256",
          "name": "numT",
          "type": "uint256"
        },
        {
          "internalType": "uint256",
          "name": "p",
          "type": "uint256"
        }
      ],
      "stateMutability": "nonpayable",
      "type": "constructor"
    },
    {
      "inputs": [
        {
          "internalType": "uint256",
          "name": "",
          "type": "uint256"
        }
      ],
      "name": "idOwner",
      "outputs": [
        {
          "internalType": "address",
          "name": "",
          "type": "address"
        }
      ],
      "stateMutability": "view",
      "type": "function",
      "constant": true
    },
    {
      "inputs": [],
      "name": "manager",
      "outputs": [
        {
          "internalType": "address",
          "name": "",
          "type": "address"
        }
      ],
      "stateMutability": "view",
      "type": "function",
      "constant": true
    },
    {
      "inputs": [
        {
          "internalType": "address",
          "name": "",
          "type": "address"
        },
        {
          "internalType": "address",
          "name": "",
          "type": "address"
        }
      ],
      "name": "swapApproval",
      "outputs": [
        {
          "internalType": "bool",
          "name": "",
          "type": "bool"
        }
      ],
      "stateMutability": "view",
      "type": "function",
      "constant": true
    },
    {
      "inputs": [
        {
          "internalType": "address",
          "name": "",
          "type": "address"
        }
      ],
      "name": "ticketOwners",
      "outputs": [
        {
          "internalType": "uint256",
          "name": "",
          "type": "uint256"
        }
      ],
      "stateMutability": "view",
      "type": "function",
      "constant": true
    },
    {
      "inputs": [
        {
          "internalType": "uint256",
          "name": "ticketId",
          "type": "uint256"
        }
      ],
      "name": "buyTicket",
      "outputs": [],
      "stateMutability": "payable",
      "type": "function",
      "payable": true
    },
    {
      "inputs": [
        {
          "internalType": "address",
          "name": "user",
          "type": "address"
        }
      ],
      "name": "noTicket",
      "outputs": [
        {
          "internalType": "bool",
          "name": "",
          "type": "bool"
        }
      ],
      "stateMutability": "view",
      "type": "function",
      "constant": true
    },
    {
      "inputs": [
        {
          "internalType": "address",
          "name": "person",
          "type": "address"
        }
      ],
      "name": "getTicketOf",
      "outputs": [
        {
          "internalType": "uint256",
          "name": "",
          "type": "uint256"
        }
      ],
      "stateMutability": "view",
      "type": "function",
      "constant": true
    },
    {
      "inputs": [
        {
          "internalType": "address",
          "name": "partner",
          "type": "address"
        }
      ],
      "name": "offerSwap",
      "outputs": [],
      "stateMutability": "nonpayable",
      "type": "function"
    },
    {
      "inputs": [
        {
          "internalType": "address",
          "name": "partner",
          "type": "address"
        }
      ],
      "name": "acceptSwap",
      "outputs": [],
      "stateMutability": "nonpayable",
      "type": "function"
    }
  ],
  "bytecode": "0x608060405234801561001057600080fd5b50604051610e9b380380610e9b833981810160405281019061003291906100ca565b816000819055508060018190555033600260006101000a81548173ffffffffffffffffffffffffffffffffffffffff021916908373ffffffffffffffffffffffffffffffffffffffff16021790555081600381905550505061010a565b600080fd5b6000819050919050565b6100a781610094565b81146100b257600080fd5b50565b6000815190506100c48161009e565b92915050565b600080604083850312156100e1576100e061008f565b5b60006100ef858286016100b5565b9250506020610100858286016100b5565b9150509250929050565b610d82806101196000396000f3fe6080604052600436106100865760003560e01c8063481c6a7511610059578063481c6a751461017f57806367dd74ca146101aa578063b6761e25146101c6578063bf3fd6ce146101ef578063fe99d8bc1461022c57610086565b80630412f4ab1461008b5780631f6ea787146100c857806329fa8bb81461010557806339cd161314610142575b600080fd5b34801561009757600080fd5b506100b260048036038101906100ad9190610b9a565b610255565b6040516100bf9190610be0565b60405180910390f35b3480156100d457600080fd5b506100ef60048036038101906100ea9190610b9a565b61029e565b6040516100fc9190610be0565b60405180910390f35b34801561011157600080fd5b5061012c60048036038101906101279190610b9a565b6102b6565b6040516101399190610c16565b60405180910390f35b34801561014e57600080fd5b5061016960048036038101906101649190610c31565b610312565b6040516101769190610c16565b60405180910390f35b34801561018b57600080fd5b50610194610341565b6040516101a19190610c80565b60405180910390f35b6101c460048036038101906101bf9190610cc7565b610367565b005b3480156101d257600080fd5b506101ed60048036038101906101e89190610b9a565b610499565b005b3480156101fb57600080fd5b5061021660048036038101906102119190610cc7565b6105cb565b6040516102239190610c80565b60405180910390f35b34801561023857600080fd5b50610253600480360381019061024e9190610b9a565b6105fe565b005b6000600460008373ffffffffffffffffffffffffffffffffffffffff1673ffffffffffffffffffffffffffffffffffffffff168152602001908152602001600020549050919050565b60046020528060005260406000206000915090505481565b600080600460008473ffffffffffffffffffffffffffffffffffffffff1673ffffffffffffffffffffffffffffffffffffffff168152602001908152602001600020541115610308576001905061030d565b600090505b919050565b60066020528160005260406000206020528060005260406000206000915091509054906101000a900460ff1681565b600260009054906101000a900473ffffffffffffffffffffffffffffffffffffffff1681565b6001600054101561037757600080fd5b6001543373ffffffffffffffffffffffffffffffffffffffff16311161039c57600080fd5b600015156103a9336102b6565b1515146103b557600080fd5b600073ffffffffffffffffffffffffffffffffffffffff166005600083815260200190815260200160002060009054906101000a900473ffffffffffffffffffffffffffffffffffffffff1673ffffffffffffffffffffffffffffffffffffffff161461042157600080fd5b600260009054906101000a900473ffffffffffffffffffffffffffffffffffffffff1673ffffffffffffffffffffffffffffffffffffffff166108fc6001549081150290604051600060405180830381858888f1935050505015801561048b573d6000803e3d6000fd5b5061049633826109ff565b50565b806000600460003373ffffffffffffffffffffffffffffffffffffffff1673ffffffffffffffffffffffffffffffffffffffff16815260200190815260200160002054116104e657600080fd5b6000600460008373ffffffffffffffffffffffffffffffffffffffff1673ffffffffffffffffffffffffffffffffffffffff168152602001908152602001600020541161053257600080fd5b6001600660008473ffffffffffffffffffffffffffffffffffffffff1673ffffffffffffffffffffffffffffffffffffffff16815260200190815260200160002060003373ffffffffffffffffffffffffffffffffffffffff1673ffffffffffffffffffffffffffffffffffffffff16815260200190815260200160002060006101000a81548160ff0219169083151502179055505050565b60056020528060005260406000206000915054906101000a900473ffffffffffffffffffffffffffffffffffffffff1681565b806000600460003373ffffffffffffffffffffffffffffffffffffffff1673ffffffffffffffffffffffffffffffffffffffff168152602001908152602001600020541161064b57600080fd5b6000600460008373ffffffffffffffffffffffffffffffffffffffff1673ffffffffffffffffffffffffffffffffffffffff168152602001908152602001600020541161069757600080fd5b60011515600660003373ffffffffffffffffffffffffffffffffffffffff1673ffffffffffffffffffffffffffffffffffffffff16815260200190815260200160002060008473ffffffffffffffffffffffffffffffffffffffff1673ffffffffffffffffffffffffffffffffffffffff16815260200190815260200160002060009054906101000a900460ff161515036109fb576000600460003373ffffffffffffffffffffffffffffffffffffffff1673ffffffffffffffffffffffffffffffffffffffff1681526020019081526020016000205490506000600460008573ffffffffffffffffffffffffffffffffffffffff1673ffffffffffffffffffffffffffffffffffffffff16815260200190815260200160002054905080600460003373ffffffffffffffffffffffffffffffffffffffff1673ffffffffffffffffffffffffffffffffffffffff1681526020019081526020016000208190555081600460008673ffffffffffffffffffffffffffffffffffffffff1673ffffffffffffffffffffffffffffffffffffffff16815260200190815260200160002081905550836005600084815260200190815260200160002060006101000a81548173ffffffffffffffffffffffffffffffffffffffff021916908373ffffffffffffffffffffffffffffffffffffffff160217905550336005600083815260200190815260200160002060006101000a81548173ffffffffffffffffffffffffffffffffffffffff021916908373ffffffffffffffffffffffffffffffffffffffff160217905550600660008573ffffffffffffffffffffffffffffffffffffffff1673ffffffffffffffffffffffffffffffffffffffff16815260200190815260200160002060003373ffffffffffffffffffffffffffffffffffffffff1673ffffffffffffffffffffffffffffffffffffffff16815260200190815260200160002060006101000a81549060ff0219169055600660003373ffffffffffffffffffffffffffffffffffffffff1673ffffffffffffffffffffffffffffffffffffffff16815260200190815260200160002060008573ffffffffffffffffffffffffffffffffffffffff1673ffffffffffffffffffffffffffffffffffffffff16815260200190815260200160002060006101000a81549060ff021916905550505b5050565b60016000541015610a0f57600080fd5b600073ffffffffffffffffffffffffffffffffffffffff166005600083815260200190815260200160002060009054906101000a900473ffffffffffffffffffffffffffffffffffffffff1673ffffffffffffffffffffffffffffffffffffffff16148015610a8057506003548111155b15610b335780600460008473ffffffffffffffffffffffffffffffffffffffff1673ffffffffffffffffffffffffffffffffffffffff16815260200190815260200160002081905550816005600083815260200190815260200160002060006101000a81548173ffffffffffffffffffffffffffffffffffffffff021916908373ffffffffffffffffffffffffffffffffffffffff160217905550600080815480929190610b2d90610d23565b91905055505b5050565b600080fd5b600073ffffffffffffffffffffffffffffffffffffffff82169050919050565b6000610b6782610b3c565b9050919050565b610b7781610b5c565b8114610b8257600080fd5b50565b600081359050610b9481610b6e565b92915050565b600060208284031215610bb057610baf610b37565b5b6000610bbe84828501610b85565b91505092915050565b6000819050919050565b610bda81610bc7565b82525050565b6000602082019050610bf56000830184610bd1565b92915050565b60008115159050919050565b610c1081610bfb565b82525050565b6000602082019050610c2b6000830184610c07565b92915050565b60008060408385031215610c4857610c47610b37565b5b6000610c5685828601610b85565b9250506020610c6785828601610b85565b9150509250929050565b610c7a81610b5c565b82525050565b6000602082019050610c956000830184610c71565b92915050565b610ca481610bc7565b8114610caf57600080fd5b50565b600081359050610cc181610c9b565b92915050565b600060208284031215610cdd57610cdc610b37565b5b6000610ceb84828501610cb2565b91505092915050565b7f4e487b7100000000000000000000000000000000000000000000000000000000600052601160045260246000fd5b6000610d2e82610bc7565b915060008203610d4157610d40610cf4565b5b60018203905091905056fea264697066735822122043d3f4fe7cc5acb38aa3aec6bbca6854c487091f9238cbfd0fc6524cfc25d42b64736f6c634300080e0033",
  "immutableReferences": {},
  "source": "// SPDX-License-Identifier: MIT\n\npragma solidity ^0.8.7; \n \ncontract TicketSale { \n \n \n    // </contract_variables> \n    uint numTickets;\n    uint price;\n    address public manager;\n    uint ticketTotal;\n\n    mapping (address => uint) public ticketOwners;\n    mapping (uint => address) public idOwner;\n    //nested mapping\n    mapping (address => mapping (address => bool)) public swapApproval;\n\n    //Mappings can be seen as hash tables which are virtually initialized such that every possible key \n    //exists and is mapped to a value whose byte-representation is all zeros: a types default value.\n    //This is from the solidity documentation. Because of this I didn't assume that I needed to \"push\" to mappings\n\n    //I made the decision to not use a struct as I was already using a decent amount of mappings and didn't want to increase\n    //gas price more.\n\n    constructor(uint numT, uint p) { \n        numTickets = numT;\n        price = p;\n        manager = msg.sender;\n        ticketTotal = numT;\n    }\n    \n \n    function buyTicket (uint ticketId) public payable {\n        //requires tickets > 1, sufficient funds, checks if owner already has ticket\n        //calls createTicket function which is internal and not accessible outside of iterations of the contract.\n        \n        require(numTickets>=1);\n        require(msg.sender.balance > price);\n        require(noTicket(msg.sender)==false);\n        require(idOwner[ticketId]==address(0x0));\n\n        payable(manager).transfer(price);\n        createTicket(msg.sender,ticketId);\n    } \n    \n       function createTicket(address own, uint ticketId) internal{\n\n        //internal keyword was just something I was trying. If I used a private keyword in solidity it would \n        //only be accessible by the original contract. The internal keyword allows all contract instances derived from contract \n        //to access the function.\n        require(numTickets>=1);\n\n        if(idOwner[ticketId]==address(0x0) && ticketId <= ticketTotal){\n            ticketOwners[own] = ticketId;\n            idOwner[ticketId] = own;\n            numTickets--;\n        }\n    }\n\n    function noTicket(address user) view public returns (bool){\n        //view was used because it simply just checks state.\n        if (ticketOwners[user]>0){\n            return true;\n        } else {\n            return false;\n        }\n    }\n \n    function getTicketOf(address person) public view returns (uint) { \n        //checks mapping for address\n        return ticketOwners[person];\n    } \n \n    function offerSwap(address partner) public bothHaveTickets(partner){ \n        // sets nested mapping to true\n        //uses \"bothHaveTickets\" mehtod to check for tickets\n        swapApproval[partner][msg.sender] = true;\n\n    } \n \n    function acceptSwap(address partner) public bothHaveTickets(partner){ \n        //checks if bool in nested mapping is true\n        //temp placeholders were created to \n        if(swapApproval[msg.sender][partner]==true){\n            uint tempMsgSender = ticketOwners[msg.sender];\n            uint tempPartner = ticketOwners[partner];\n\n            ticketOwners[msg.sender] = tempPartner;\n            ticketOwners[partner] = tempMsgSender;\n            idOwner[tempMsgSender] = partner;\n            idOwner[tempPartner] = msg.sender;\n\n\n            delete swapApproval[partner][msg.sender];\n            delete swapApproval[msg.sender][partner];\n        }\n        \n    } \n\n    modifier bothHaveTickets(address partner){\n        require(ticketOwners[msg.sender]>0);\n        require(ticketOwners[partner]>0);\n        _;\n    }\n\n}",
  "sourcePath": "/Users/brandonbrooks-patton/Desktop/ticket-sale/truffle/contracts/TicketSale.sol",
  "compiler": {
    "name": "solc",
    "version": "0.8.14+commit.80d49f37.Emscripten.clang"
  },
  "schemaVersion": "3.4.10",
  "updatedAt": "2022-11-22T01:22:38.270Z",
  "networkType": "ethereum",
  "devdoc": {
    "kind": "dev",
    "methods": {},
    "version": 1
  },
  "userdoc": {
    "kind": "user",
    "methods": {},
    "version": 1
  }
}